{
  "contractName": "ZombieOwnership",
  "abi": [
    {
      "anonymous": false,
      "inputs": [
        {
          "indexed": true,
          "internalType": "address",
          "name": "_owner",
          "type": "address"
        },
        {
          "indexed": true,
          "internalType": "address",
          "name": "_approved",
          "type": "address"
        },
        {
          "indexed": true,
          "internalType": "uint256",
          "name": "_tokenId",
          "type": "uint256"
        }
      ],
      "name": "Approval",
      "type": "event"
    },
    {
      "anonymous": false,
      "inputs": [
        {
          "indexed": false,
          "internalType": "uint256",
          "name": "zombieId",
          "type": "uint256"
        },
        {
          "indexed": false,
          "internalType": "string",
          "name": "name",
          "type": "string"
        },
        {
          "indexed": false,
          "internalType": "uint256",
          "name": "dna",
          "type": "uint256"
        }
      ],
      "name": "NewZombie",
      "type": "event"
    },
    {
      "anonymous": false,
      "inputs": [
        {
          "indexed": true,
          "internalType": "address",
          "name": "previousOwner",
          "type": "address"
        },
        {
          "indexed": true,
          "internalType": "address",
          "name": "newOwner",
          "type": "address"
        }
      ],
      "name": "OwnershipTransferred",
      "type": "event"
    },
    {
      "anonymous": false,
      "inputs": [
        {
          "indexed": true,
          "internalType": "address",
          "name": "_from",
          "type": "address"
        },
        {
          "indexed": true,
          "internalType": "address",
          "name": "_to",
          "type": "address"
        },
        {
          "indexed": true,
          "internalType": "uint256",
          "name": "_tokenId",
          "type": "uint256"
        }
      ],
      "name": "Transfer",
      "type": "event"
    },
    {
      "inputs": [
        {
          "internalType": "uint256",
          "name": "_zombieId",
          "type": "uint256"
        },
        {
          "internalType": "uint256",
          "name": "_targetId",
          "type": "uint256"
        }
      ],
      "name": "attack",
      "outputs": [],
      "stateMutability": "nonpayable",
      "type": "function"
    },
    {
      "inputs": [
        {
          "internalType": "uint256",
          "name": "_zombieId",
          "type": "uint256"
        },
        {
          "internalType": "uint256",
          "name": "_newDna",
          "type": "uint256"
        }
      ],
      "name": "changeDna",
      "outputs": [],
      "stateMutability": "nonpayable",
      "type": "function"
    },
    {
      "inputs": [
        {
          "internalType": "uint256",
          "name": "_zombieId",
          "type": "uint256"
        },
        {
          "internalType": "string",
          "name": "_newName",
          "type": "string"
        }
      ],
      "name": "changeName",
      "outputs": [],
      "stateMutability": "nonpayable",
      "type": "function"
    },
    {
      "inputs": [
        {
          "internalType": "string",
          "name": "_name",
          "type": "string"
        }
      ],
      "name": "createRandomZombie",
      "outputs": [],
      "stateMutability": "nonpayable",
      "type": "function"
    },
    {
      "inputs": [
        {
          "internalType": "uint256",
          "name": "_zombieId",
          "type": "uint256"
        },
        {
          "internalType": "uint256",
          "name": "_kittyId",
          "type": "uint256"
        }
      ],
      "name": "feedOnKitty",
      "outputs": [],
      "stateMutability": "nonpayable",
      "type": "function"
    },
    {
      "inputs": [
        {
          "internalType": "address",
          "name": "_owner",
          "type": "address"
        }
      ],
      "name": "getZombiesByOwner",
      "outputs": [
        {
          "internalType": "uint256[]",
          "name": "",
          "type": "uint256[]"
        }
      ],
      "stateMutability": "view",
      "type": "function"
    },
    {
      "inputs": [],
      "name": "isOwner",
      "outputs": [
        {
          "internalType": "bool",
          "name": "",
          "type": "bool"
        }
      ],
      "stateMutability": "view",
      "type": "function"
    },
    {
      "inputs": [
        {
          "internalType": "uint256",
          "name": "_zombieId",
          "type": "uint256"
        }
      ],
      "name": "levelUp",
      "outputs": [],
      "stateMutability": "payable",
      "type": "function"
    },
    {
      "inputs": [],
      "name": "owner",
      "outputs": [
        {
          "internalType": "address",
          "name": "",
          "type": "address"
        }
      ],
      "stateMutability": "view",
      "type": "function"
    },
    {
      "inputs": [],
      "name": "renounceOwnership",
      "outputs": [],
      "stateMutability": "nonpayable",
      "type": "function"
    },
    {
      "inputs": [
        {
          "internalType": "address",
          "name": "_address",
          "type": "address"
        }
      ],
      "name": "setKittyContractAddress",
      "outputs": [],
      "stateMutability": "nonpayable",
      "type": "function"
    },
    {
      "inputs": [
        {
          "internalType": "uint256",
          "name": "_fee",
          "type": "uint256"
        }
      ],
      "name": "setLevelUpFee",
      "outputs": [],
      "stateMutability": "nonpayable",
      "type": "function"
    },
    {
      "inputs": [
        {
          "internalType": "address",
          "name": "newOwner",
          "type": "address"
        }
      ],
      "name": "transferOwnership",
      "outputs": [],
      "stateMutability": "nonpayable",
      "type": "function"
    },
    {
      "inputs": [],
      "name": "withdraw",
      "outputs": [],
      "stateMutability": "nonpayable",
      "type": "function"
    },
    {
      "inputs": [
        {
          "internalType": "uint256",
          "name": "",
          "type": "uint256"
        }
      ],
      "name": "zombieToOwner",
      "outputs": [
        {
          "internalType": "address",
          "name": "",
          "type": "address"
        }
      ],
      "stateMutability": "view",
      "type": "function"
    },
    {
      "inputs": [
        {
          "internalType": "uint256",
          "name": "",
          "type": "uint256"
        }
      ],
      "name": "zombies",
      "outputs": [
        {
          "internalType": "string",
          "name": "name",
          "type": "string"
        },
        {
          "internalType": "uint256",
          "name": "dna",
          "type": "uint256"
        },
        {
          "internalType": "uint32",
          "name": "level",
          "type": "uint32"
        },
        {
          "internalType": "uint32",
          "name": "readyTime",
          "type": "uint32"
        },
        {
          "internalType": "uint16",
          "name": "winCount",
          "type": "uint16"
        },
        {
          "internalType": "uint16",
          "name": "lossCount",
          "type": "uint16"
        }
      ],
      "stateMutability": "view",
      "type": "function"
    },
    {
      "inputs": [
        {
          "internalType": "address",
          "name": "_owner",
          "type": "address"
        }
      ],
      "name": "balanceOf",
      "outputs": [
        {
          "internalType": "uint256",
          "name": "",
          "type": "uint256"
        }
      ],
      "stateMutability": "view",
      "type": "function"
    },
    {
      "inputs": [
        {
          "internalType": "uint256",
          "name": "_tokenId",
          "type": "uint256"
        }
      ],
      "name": "ownerOf",
      "outputs": [
        {
          "internalType": "address",
          "name": "",
          "type": "address"
        }
      ],
      "stateMutability": "view",
      "type": "function"
    },
    {
      "inputs": [
        {
          "internalType": "address",
          "name": "_from",
          "type": "address"
        },
        {
          "internalType": "address",
          "name": "_to",
          "type": "address"
        },
        {
          "internalType": "uint256",
          "name": "_tokenId",
          "type": "uint256"
        }
      ],
      "name": "transferFrom",
      "outputs": [],
      "stateMutability": "payable",
      "type": "function"
    },
    {
      "inputs": [
        {
          "internalType": "address",
          "name": "_approved",
          "type": "address"
        },
        {
          "internalType": "uint256",
          "name": "_tokenId",
          "type": "uint256"
        }
      ],
      "name": "approve",
      "outputs": [],
      "stateMutability": "payable",
      "type": "function"
    }
  ],
  "bytecode": "0x60806040526010600155600154600a6200001a919062000289565b6002556201518060035566038d7ea4c680006008555f6009556046600a5534801562000044575f80fd5b50335f806101000a81548173ffffffffffffffffffffffffffffffffffffffff021916908373ffffffffffffffffffffffffffffffffffffffff1602179055505f8054906101000a900473ffffffffffffffffffffffffffffffffffffffff1673ffffffffffffffffffffffffffffffffffffffff165f73ffffffffffffffffffffffffffffffffffffffff167f8be0079c531659141344cd1fd0a4f28419497f9722a3daafe3b4186f6b6457e060405160405180910390a3620002d9565b7f4e487b71000000000000000000000000000000000000000000000000000000005f52601160045260245ffd5b5f8160011c9050919050565b5f808291508390505b60018511156200018d5780860481111562000165576200016462000103565b5b6001851615620001755780820291505b8081029050620001858562000130565b945062000145565b94509492505050565b5f82620001a7576001905062000279565b81620001b6575f905062000279565b8160018114620001cf5760028114620001da5762000210565b600191505062000279565b60ff841115620001ef57620001ee62000103565b5b8360020a91508482111562000209576200020862000103565b5b5062000279565b5060208310610133831016604e8410600b84101617156200024a5782820a90508381111562000244576200024362000103565b5b62000279565b6200025984848460016200013c565b9250905081840481111562000273576200027262000103565b5b81810290505b9392505050565b5f819050919050565b5f620002958262000280565b9150620002a28362000280565b9250620002d17fffffffffffffffffffffffffffffffffffffffffffffffffffffffffffffffff848462000196565b905092915050565b61285f80620002e75f395ff3fe60806040526004361061011e575f3560e01c80636352211e1161009f5780638f32d59b116100635780638f32d59b1461039d578063c39cbef1146103c7578063ccf670f8146103ef578063e1fa763814610417578063f2fde38b1461043f5761011e565b80636352211e146102bd57806370a08231146102f9578063715018a6146103355780637bff0a011461034b5780638da5cb5b146103735761011e565b80633ccfd60b116100e65780633ccfd60b146101df5780634412e104146101f5578063528b7b8f146102315780635f4623f11461026d5780635faf2880146102955761011e565b8063095ea7b3146101225780630ce90ec21461013e57806317a7f4cc1461015a5780632052465e1461018257806323b872dd146101c3575b5f80fd5b61013c60048036038101906101379190611b1e565b610467565b005b61015860048036038101906101539190611b5c565b61057e565b005b348015610165575f80fd5b50610180600480360381019061017b9190611b87565b61062d565b005b34801561018d575f80fd5b506101a860048036038101906101a39190611b5c565b610747565b6040516101ba96959493929190611c98565b60405180910390f35b6101dd60048036038101906101d89190611cfe565b61084f565b005b3480156101ea575f80fd5b506101f361092c565b005b348015610200575f80fd5b5061021b60048036038101906102169190611d4e565b61098e565b6040516102289190611e30565b60405180910390f35b34801561023c575f80fd5b5061025760048036038101906102529190611b5c565b610ad9565b6040516102649190611e5f565b60405180910390f35b348015610278575f80fd5b50610293600480360381019061028e9190611d4e565b610b09565b005b3480156102a0575f80fd5b506102bb60048036038101906102b69190611b87565b610b5c565b005b3480156102c8575f80fd5b506102e360048036038101906102de9190611b5c565b610c3a565b6040516102f09190611e5f565b60405180910390f35b348015610304575f80fd5b5061031f600480360381019061031a9190611d4e565b610c73565b60405161032c9190611e78565b60405180910390f35b348015610340575f80fd5b50610349610cb9565b005b348015610356575f80fd5b50610371600480360381019061036c9190611fbd565b610d83565b005b34801561037e575f80fd5b50610387610dff565b6040516103949190611e5f565b60405180910390f35b3480156103a8575f80fd5b506103b1610e26565b6040516103be919061201e565b60405180910390f35b3480156103d2575f80fd5b506103ed60048036038101906103e89190612037565b610e7b565b005b3480156103fa575f80fd5b5061041560048036038101906104109190611b5c565b610f61565b005b348015610422575f80fd5b5061043d60048036038101906104389190611b87565b610f7b565b005b34801561044a575f80fd5b5061046560048036038101906104609190611d4e565b61125f565b005b8060055f8281526020019081526020015f205f9054906101000a900473ffffffffffffffffffffffffffffffffffffffff1673ffffffffffffffffffffffffffffffffffffffff163373ffffffffffffffffffffffffffffffffffffffff16146104cf575f80fd5b82600b5f8481526020019081526020015f205f6101000a81548173ffffffffffffffffffffffffffffffffffffffff021916908373ffffffffffffffffffffffffffffffffffffffff160217905550818373ffffffffffffffffffffffffffffffffffffffff163373ffffffffffffffffffffffffffffffffffffffff167f8c5be1e5ebec7d5bd14f71427d1e84f3dd0314c0f7b2291e5b200ac8c7c3b92560405160405180910390a4505050565b600854341461058b575f80fd5b6001600482815481106105a1576105a0612091565b5b905f5260205f2090600302016002015f8282829054906101000a900463ffffffff166105cd91906120eb565b92506101000a81548163ffffffff021916908363ffffffff1602179055600482815481106105fe576105fd612091565b5b905f5260205f2090600302016002015f6101000a81548163ffffffff021916908363ffffffff16021790555050565b5f60075f9054906101000a900473ffffffffffffffffffffffffffffffffffffffff1673ffffffffffffffffffffffffffffffffffffffff1663e98b7f4d836040518263ffffffff1660e01b81526004016106889190611e78565b61014060405180830381865afa1580156106a4573d5f803e3d5ffd5b505050506040513d601f19601f820116820180604052508101906106c89190612160565b9091929394959697985090919293949596975090919293949596509091929394955090919293945090919293509091925090915090508091505061074283826040518060400160405280600581526020017f6b6974747900000000000000000000000000000000000000000000000000000081525061127b565b505050565b60048181548110610756575f80fd5b905f5260205f2090600302015f91509050805f01805461077590612266565b80601f01602080910402602001604051908101604052809291908181526020018280546107a190612266565b80156107ec5780601f106107c3576101008083540402835291602001916107ec565b820191905f5260205f20905b8154815290600101906020018083116107cf57829003601f168201915b505050505090806001015490806002015f9054906101000a900463ffffffff16908060020160049054906101000a900463ffffffff16908060020160089054906101000a900461ffff169080600201600a9054906101000a900461ffff16905086565b3373ffffffffffffffffffffffffffffffffffffffff1660055f8381526020019081526020015f205f9054906101000a900473ffffffffffffffffffffffffffffffffffffffff1673ffffffffffffffffffffffffffffffffffffffff16148061091457503373ffffffffffffffffffffffffffffffffffffffff16600b5f8381526020019081526020015f205f9054906101000a900473ffffffffffffffffffffffffffffffffffffffff1673ffffffffffffffffffffffffffffffffffffffff16145b61091c575f80fd5b61092783838361140e565b505050565b610934610e26565b61093c575f80fd5b5f610945610dff565b90508073ffffffffffffffffffffffffffffffffffffffff166108fc4790811502906040515f60405180830381858888f1935050505015801561098a573d5f803e3d5ffd5b5050565b60605f60065f8473ffffffffffffffffffffffffffffffffffffffff1673ffffffffffffffffffffffffffffffffffffffff1681526020019081526020015f205467ffffffffffffffff8111156109e8576109e7611e99565b5b604051908082528060200260200182016040528015610a165781602001602082028036833780820191505090505b5090505f805b600480549050811015610ace578473ffffffffffffffffffffffffffffffffffffffff1660055f8381526020019081526020015f205f9054906101000a900473ffffffffffffffffffffffffffffffffffffffff1673ffffffffffffffffffffffffffffffffffffffff1603610abb5780838381518110610aa057610a9f612091565b5b6020026020010181815250508180610ab790612296565b9250505b8080610ac690612296565b915050610a1c565b508192505050919050565b6005602052805f5260405f205f915054906101000a900473ffffffffffffffffffffffffffffffffffffffff1681565b610b11610e26565b610b19575f80fd5b8060075f6101000a81548173ffffffffffffffffffffffffffffffffffffffff021916908373ffffffffffffffffffffffffffffffffffffffff16021790555050565b6014828160048281548110610b7457610b73612091565b5b905f5260205f2090600302016002015f9054906101000a900463ffffffff1663ffffffff161015610ba3575f80fd5b8360055f8281526020019081526020015f205f9054906101000a900473ffffffffffffffffffffffffffffffffffffffff1673ffffffffffffffffffffffffffffffffffffffff163373ffffffffffffffffffffffffffffffffffffffff1614610c0b575f80fd5b8360048681548110610c2057610c1f612091565b5b905f5260205f209060030201600101819055505050505050565b5f60055f8381526020019081526020015f205f9054906101000a900473ffffffffffffffffffffffffffffffffffffffff169050919050565b5f60065f8373ffffffffffffffffffffffffffffffffffffffff1673ffffffffffffffffffffffffffffffffffffffff1681526020019081526020015f20549050919050565b610cc1610e26565b610cc9575f80fd5b5f73ffffffffffffffffffffffffffffffffffffffff165f8054906101000a900473ffffffffffffffffffffffffffffffffffffffff1673ffffffffffffffffffffffffffffffffffffffff167f8be0079c531659141344cd1fd0a4f28419497f9722a3daafe3b4186f6b6457e060405160405180910390a35f805f6101000a81548173ffffffffffffffffffffffffffffffffffffffff021916908373ffffffffffffffffffffffffffffffffffffffff160217905550565b5f60065f3373ffffffffffffffffffffffffffffffffffffffff1673ffffffffffffffffffffffffffffffffffffffff1681526020019081526020015f205414610dcb575f80fd5b5f610dd5826115e1565b9050606481610de4919061230a565b81610def919061233a565b9050610dfb8282611624565b5050565b5f805f9054906101000a900473ffffffffffffffffffffffffffffffffffffffff16905090565b5f805f9054906101000a900473ffffffffffffffffffffffffffffffffffffffff1673ffffffffffffffffffffffffffffffffffffffff163373ffffffffffffffffffffffffffffffffffffffff1614905090565b6002828160048281548110610e9357610e92612091565b5b905f5260205f2090600302016002015f9054906101000a900463ffffffff1663ffffffff161015610ec2575f80fd5b8360055f8281526020019081526020015f205f9054906101000a900473ffffffffffffffffffffffffffffffffffffffff1673ffffffffffffffffffffffffffffffffffffffff163373ffffffffffffffffffffffffffffffffffffffff1614610f2a575f80fd5b8360048681548110610f3f57610f3e612091565b5b905f5260205f2090600302015f019081610f59919061250a565b505050505050565b610f69610e26565b610f71575f80fd5b8060088190555050565b8160055f8281526020019081526020015f205f9054906101000a900473ffffffffffffffffffffffffffffffffffffffff1673ffffffffffffffffffffffffffffffffffffffff163373ffffffffffffffffffffffffffffffffffffffff1614610fe3575f80fd5b5f60048481548110610ff857610ff7612091565b5b905f5260205f20906003020190505f6004848154811061101b5761101a612091565b5b905f5260205f20906003020190505f6110346064611884565b9050600a54811161119b5760018360020160088282829054906101000a900461ffff1661106191906125d9565b92506101000a81548161ffff021916908361ffff16021790558360020160086101000a81548161ffff021916908361ffff1602179055506001836002015f8282829054906101000a900463ffffffff166110bb91906120eb565b92506101000a81548163ffffffff021916908363ffffffff1602179055836002015f6101000a81548163ffffffff021916908363ffffffff160217905550600182600201600a8282829054906101000a900461ffff1661111b91906125d9565b92506101000a81548161ffff021916908361ffff160217905582600201600a6101000a81548161ffff021916908361ffff1602179055506111968683600101546040518060400160405280600681526020017f7a6f6d626965000000000000000000000000000000000000000000000000000081525061127b565b611257565b600183600201600a8282829054906101000a900461ffff166111bd91906125d9565b92506101000a81548161ffff021916908361ffff160217905583600201600a6101000a81548161ffff021916908361ffff16021790555060018260020160088282829054906101000a900461ffff1661121691906125d9565b92506101000a81548161ffff021916908361ffff16021790558260020160086101000a81548161ffff021916908361ffff160217905550611256836118e4565b5b505050505050565b611267610e26565b61126f575f80fd5b61127881611917565b50565b8260055f8281526020019081526020015f205f9054906101000a900473ffffffffffffffffffffffffffffffffffffffff1673ffffffffffffffffffffffffffffffffffffffff163373ffffffffffffffffffffffffffffffffffffffff16146112e3575f80fd5b5f600485815481106112f8576112f7612091565b5b905f5260205f209060030201905061130f81611a09565b611317575f80fd5b60025484611325919061230a565b93505f600285836001015461133a919061260e565b6113449190612641565b9050604051602001611355906126c5565b604051602081830303815290604052805190602001208460405160200161137c9190612709565b60405160208183030381529060405280519060200120036113be5760636064826113a6919061230a565b826113b1919061233a565b6113bb919061260e565b90505b6113fd6040518060400160405280600681526020017f4e6f4e616d65000000000000000000000000000000000000000000000000000081525082611624565b611406826118e4565b505050505050565b61145f600160065f8573ffffffffffffffffffffffffffffffffffffffff1673ffffffffffffffffffffffffffffffffffffffff1681526020019081526020015f2054611a2f90919063ffffffff16565b60065f8473ffffffffffffffffffffffffffffffffffffffff1673ffffffffffffffffffffffffffffffffffffffff1681526020019081526020015f20819055506114f1600160065f3373ffffffffffffffffffffffffffffffffffffffff1673ffffffffffffffffffffffffffffffffffffffff1681526020019081526020015f2054611a5a90919063ffffffff16565b60065f3373ffffffffffffffffffffffffffffffffffffffff1673ffffffffffffffffffffffffffffffffffffffff1681526020019081526020015f20819055508160055f8381526020019081526020015f205f6101000a81548173ffffffffffffffffffffffffffffffffffffffff021916908373ffffffffffffffffffffffffffffffffffffffff160217905550808273ffffffffffffffffffffffffffffffffffffffff168473ffffffffffffffffffffffffffffffffffffffff167fddf252ad1be2c89b69c2b068fc378daa952ba7f163c4a11628f55a4df523b3ef60405160405180910390a4505050565b5f80826040516020016115f49190612709565b604051602081830303815290604052805190602001205f1c90506002548161161c919061230a565b915050919050565b60046040518060c00160405280848152602001838152602001600163ffffffff16815260200160035442611658919061260e565b63ffffffff1681526020015f61ffff1681526020015f61ffff16815250908060018154018082558091505060019003905f5260205f2090600302015f909190919091505f820151815f0190816116ae919061250a565b50602082015181600101556040820151816002015f6101000a81548163ffffffff021916908363ffffffff16021790555060608201518160020160046101000a81548163ffffffff021916908363ffffffff16021790555060808201518160020160086101000a81548161ffff021916908361ffff16021790555060a082015181600201600a6101000a81548161ffff021916908361ffff16021790555050505f6001600480549050611761919061233a565b90503360055f8381526020019081526020015f205f6101000a81548173ffffffffffffffffffffffffffffffffffffffff021916908373ffffffffffffffffffffffffffffffffffffffff160217905550611803600160065f3373ffffffffffffffffffffffffffffffffffffffff1673ffffffffffffffffffffffffffffffffffffffff1681526020019081526020015f2054611a2f90919063ffffffff16565b60065f3373ffffffffffffffffffffffffffffffffffffffff1673ffffffffffffffffffffffffffffffffffffffff1681526020019081526020015f20819055507f88f026aacbbecc90c18411df4b1185fd8d9be2470f1962f192bf84a27d0704b78184846040516118779392919061271f565b60405180910390a1505050565b5f600160095f828254611897919061260e565b9250508190556009819055508142336009546040516020016118bb939291906127c0565b604051602081830303815290604052805190602001205f1c6118dd919061230a565b9050919050565b600354426118f2919061260e565b8160020160046101000a81548163ffffffff021916908363ffffffff16021790555050565b5f73ffffffffffffffffffffffffffffffffffffffff168173ffffffffffffffffffffffffffffffffffffffff160361194e575f80fd5b8073ffffffffffffffffffffffffffffffffffffffff165f8054906101000a900473ffffffffffffffffffffffffffffffffffffffff1673ffffffffffffffffffffffffffffffffffffffff167f8be0079c531659141344cd1fd0a4f28419497f9722a3daafe3b4186f6b6457e060405160405180910390a3805f806101000a81548173ffffffffffffffffffffffffffffffffffffffff021916908373ffffffffffffffffffffffffffffffffffffffff16021790555050565b5f428260020160049054906101000a900463ffffffff1663ffffffff1611159050919050565b5f808284611a3d919061260e565b905083811015611a5057611a4f6127fc565b5b8091505092915050565b5f82821115611a6c57611a6b6127fc565b5b8183611a78919061233a565b905092915050565b5f604051905090565b5f80fd5b5f80fd5b5f73ffffffffffffffffffffffffffffffffffffffff82169050919050565b5f611aba82611a91565b9050919050565b611aca81611ab0565b8114611ad4575f80fd5b50565b5f81359050611ae581611ac1565b92915050565b5f819050919050565b611afd81611aeb565b8114611b07575f80fd5b50565b5f81359050611b1881611af4565b92915050565b5f8060408385031215611b3457611b33611a89565b5b5f611b4185828601611ad7565b9250506020611b5285828601611b0a565b9150509250929050565b5f60208284031215611b7157611b70611a89565b5b5f611b7e84828501611b0a565b91505092915050565b5f8060408385031215611b9d57611b9c611a89565b5b5f611baa85828601611b0a565b9250506020611bbb85828601611b0a565b9150509250929050565b5f81519050919050565b5f82825260208201905092915050565b5f5b83811015611bfc578082015181840152602081019050611be1565b5f8484015250505050565b5f601f19601f8301169050919050565b5f611c2182611bc5565b611c2b8185611bcf565b9350611c3b818560208601611bdf565b611c4481611c07565b840191505092915050565b611c5881611aeb565b82525050565b5f63ffffffff82169050919050565b611c7681611c5e565b82525050565b5f61ffff82169050919050565b611c9281611c7c565b82525050565b5f60c0820190508181035f830152611cb08189611c17565b9050611cbf6020830188611c4f565b611ccc6040830187611c6d565b611cd96060830186611c6d565b611ce66080830185611c89565b611cf360a0830184611c89565b979650505050505050565b5f805f60608486031215611d1557611d14611a89565b5b5f611d2286828701611ad7565b9350506020611d3386828701611ad7565b9250506040611d4486828701611b0a565b9150509250925092565b5f60208284031215611d6357611d62611a89565b5b5f611d7084828501611ad7565b91505092915050565b5f81519050919050565b5f82825260208201905092915050565b5f819050602082019050919050565b611dab81611aeb565b82525050565b5f611dbc8383611da2565b60208301905092915050565b5f602082019050919050565b5f611dde82611d79565b611de88185611d83565b9350611df383611d93565b805f5b83811015611e23578151611e0a8882611db1565b9750611e1583611dc8565b925050600181019050611df6565b5085935050505092915050565b5f6020820190508181035f830152611e488184611dd4565b905092915050565b611e5981611ab0565b82525050565b5f602082019050611e725f830184611e50565b92915050565b5f602082019050611e8b5f830184611c4f565b92915050565b5f80fd5b5f80fd5b7f4e487b71000000000000000000000000000000000000000000000000000000005f52604160045260245ffd5b611ecf82611c07565b810181811067ffffffffffffffff82111715611eee57611eed611e99565b5b80604052505050565b5f611f00611a80565b9050611f0c8282611ec6565b919050565b5f67ffffffffffffffff821115611f2b57611f2a611e99565b5b611f3482611c07565b9050602081019050919050565b828183375f83830152505050565b5f611f61611f5c84611f11565b611ef7565b905082815260208101848484011115611f7d57611f7c611e95565b5b611f88848285611f41565b509392505050565b5f82601f830112611fa457611fa3611e91565b5b8135611fb4848260208601611f4f565b91505092915050565b5f60208284031215611fd257611fd1611a89565b5b5f82013567ffffffffffffffff811115611fef57611fee611a8d565b5b611ffb84828501611f90565b91505092915050565b5f8115159050919050565b61201881612004565b82525050565b5f6020820190506120315f83018461200f565b92915050565b5f806040838503121561204d5761204c611a89565b5b5f61205a85828601611b0a565b925050602083013567ffffffffffffffff81111561207b5761207a611a8d565b5b61208785828601611f90565b9150509250929050565b7f4e487b71000000000000000000000000000000000000000000000000000000005f52603260045260245ffd5b7f4e487b71000000000000000000000000000000000000000000000000000000005f52601160045260245ffd5b5f6120f582611c5e565b915061210083611c5e565b9250828201905063ffffffff81111561211c5761211b6120be565b5b92915050565b61212b81612004565b8114612135575f80fd5b50565b5f8151905061214681612122565b92915050565b5f8151905061215a81611af4565b92915050565b5f805f805f805f805f806101408b8d03121561217f5761217e611a89565b5b5f61218c8d828e01612138565b9a5050602061219d8d828e01612138565b99505060406121ae8d828e0161214c565b98505060606121bf8d828e0161214c565b97505060806121d08d828e0161214c565b96505060a06121e18d828e0161214c565b95505060c06121f28d828e0161214c565b94505060e06122038d828e0161214c565b9350506101006122158d828e0161214c565b9250506101206122278d828e0161214c565b9150509295989b9194979a5092959850565b7f4e487b71000000000000000000000000000000000000000000000000000000005f52602260045260245ffd5b5f600282049050600182168061227d57607f821691505b6020821081036122905761228f612239565b5b50919050565b5f6122a082611aeb565b91507fffffffffffffffffffffffffffffffffffffffffffffffffffffffffffffffff82036122d2576122d16120be565b5b600182019050919050565b7f4e487b71000000000000000000000000000000000000000000000000000000005f52601260045260245ffd5b5f61231482611aeb565b915061231f83611aeb565b92508261232f5761232e6122dd565b5b828206905092915050565b5f61234482611aeb565b915061234f83611aeb565b9250828203905081811115612367576123666120be565b5b92915050565b5f819050815f5260205f209050919050565b5f6020601f8301049050919050565b5f82821b905092915050565b5f600883026123c97fffffffffffffffffffffffffffffffffffffffffffffffffffffffffffffffff8261238e565b6123d3868361238e565b95508019841693508086168417925050509392505050565b5f819050919050565b5f61240e61240961240484611aeb565b6123eb565b611aeb565b9050919050565b5f819050919050565b612427836123f4565b61243b61243382612415565b84845461239a565b825550505050565b5f90565b61244f612443565b61245a81848461241e565b505050565b5b8181101561247d576124725f82612447565b600181019050612460565b5050565b601f8211156124c2576124938161236d565b61249c8461237f565b810160208510156124ab578190505b6124bf6124b78561237f565b83018261245f565b50505b505050565b5f82821c905092915050565b5f6124e25f19846008026124c7565b1980831691505092915050565b5f6124fa83836124d3565b9150826002028217905092915050565b61251382611bc5565b67ffffffffffffffff81111561252c5761252b611e99565b5b6125368254612266565b612541828285612481565b5f60209050601f831160018114612572575f8415612560578287015190505b61256a85826124ef565b8655506125d1565b601f1984166125808661236d565b5f5b828110156125a757848901518255600182019150602085019450602081019050612582565b868310156125c457848901516125c0601f8916826124d3565b8355505b6001600288020188555050505b505050505050565b5f6125e382611c7c565b91506125ee83611c7c565b9250828201905061ffff811115612608576126076120be565b5b92915050565b5f61261882611aeb565b915061262383611aeb565b925082820190508082111561263b5761263a6120be565b5b92915050565b5f61264b82611aeb565b915061265683611aeb565b925082612666576126656122dd565b5b828204905092915050565b5f81905092915050565b7f6b697474790000000000000000000000000000000000000000000000000000005f82015250565b5f6126af600583612671565b91506126ba8261267b565b600582019050919050565b5f6126cf826126a3565b9150819050919050565b5f6126e382611bc5565b6126ed8185612671565b93506126fd818560208601611bdf565b80840191505092915050565b5f61271482846126d9565b915081905092915050565b5f6060820190506127325f830186611c4f565b81810360208301526127448185611c17565b90506127536040830184611c4f565b949350505050565b5f819050919050565b61277561277082611aeb565b61275b565b82525050565b5f8160601b9050919050565b5f6127918261277b565b9050919050565b5f6127a282612787565b9050919050565b6127ba6127b582611ab0565b612798565b82525050565b5f6127cb8286612764565b6020820191506127db82856127a9565b6014820191506127eb8284612764565b602082019150819050949350505050565b7f4e487b71000000000000000000000000000000000000000000000000000000005f52600160045260245ffdfea2646970667358221220050de335e1abde934da08ff6ad732e1ee7e1a6244e28f852892ace6ebead690164736f6c63430008150033",
  "immutableReferences": {},
  "source": "// SPDX-License-Identifier: UNLICENSED\r\n\r\npragma solidity ^0.8.21;\r\n\r\nimport \"./zombieattack.sol\";\r\nimport \"./erc721.sol\";\r\nimport \"./safemath.sol\";\r\n\r\ncontract ZombieOwnership is ZombieAttack, ERC721 {\r\n\r\n  using SafeMath for uint256;\r\n\r\n  mapping (uint => address) zombieApprovals;\r\n\r\n  function balanceOf(address _owner) override external view returns (uint256) {\r\n    return ownerZombieCount[_owner];\r\n  }\r\n\r\n  function ownerOf(uint256 _tokenId) override external view returns (address) {\r\n    return zombieToOwner[_tokenId];\r\n  }\r\n\r\n  function _transfer(address _from, address _to, uint256 _tokenId) private {\r\n    ownerZombieCount[_to] = ownerZombieCount[_to].add(1);\r\n    ownerZombieCount[msg.sender] = ownerZombieCount[msg.sender].sub(1);\r\n    zombieToOwner[_tokenId] = _to;\r\n    emit Transfer(_from, _to, _tokenId);\r\n  }\r\n\r\n  function transferFrom(address _from, address _to, uint256 _tokenId) override external payable {\r\n      require (zombieToOwner[_tokenId] == msg.sender || zombieApprovals[_tokenId] == msg.sender);\r\n      _transfer(_from, _to, _tokenId);\r\n    }\r\n\r\n  function approve(address _approved, uint256 _tokenId) override external payable onlyOwnerOf(_tokenId) {\r\n      zombieApprovals[_tokenId] = _approved;\r\n      emit Approval(msg.sender, _approved, _tokenId);\r\n    }\r\n\r\n}",
  "sourcePath": "D:\\Ethereum\\CryptoZombies_LVL2\\repo\\contracts\\zombieownership.sol",
  "compiler": {
    "name": "solc",
    "version": "0.8.21+commit.d9974bed.Emscripten.clang"
  },
  "schemaVersion": "3.4.16",
  "updatedAt": "2024-08-19T16:53:34.750Z",
  "devdoc": {
    "kind": "dev",
    "methods": {
      "isOwner()": {
        "returns": {
          "_0": "true if `msg.sender` is the owner of the contract."
        }
      },
      "owner()": {
        "returns": {
          "_0": "the address of the owner."
        }
      },
      "renounceOwnership()": {
        "details": "Allows the current owner to relinquish control of the contract."
      },
      "transferOwnership(address)": {
        "details": "Allows the current owner to transfer control of the contract to a newOwner.",
        "params": {
          "newOwner": "The address to transfer ownership to."
        }
      }
    },
    "version": 1
  },
  "userdoc": {
    "kind": "user",
    "methods": {
      "renounceOwnership()": {
        "notice": "Renouncing to ownership will leave the contract without an owner. It will not be possible to call the functions with the `onlyOwner` modifier anymore."
      }
    },
    "version": 1
  }
}